:020000040000FA
:100000008316FF30850001308600880100309F0094
:100010000317FF308800003089008312031341303A
:100020009F008030A200A301A401220888000000E4
:1000300000000000000000009F149F1C1D281E08E7
:10004000A100A00F2128A10F21280D30A100A00B95
:100050002728A10B2728241833280618352824140C
:10006000FF30A3063528061824100310231C3C2853
:10007000A20C0318A2171528A20D03182214152884
:02400E00E400CC
:00000001FF
